{
  "_format": "hh-sol-artifact-1",
  "contractName": "Monitoring",
  "sourceName": "contracts/monitoring.sol",
  "abi": [
    {
      "inputs": [],
      "stateMutability": "nonpayable",
      "type": "constructor"
    },
    {
      "anonymous": false,
      "inputs": [
        {
          "indexed": true,
          "internalType": "string",
          "name": "shipmentId",
          "type": "string"
        },
        {
          "indexed": false,
          "internalType": "uint256",
          "name": "timestamp",
          "type": "uint256"
        },
        {
          "indexed": false,
          "internalType": "int256",
          "name": "temperature",
          "type": "int256"
        },
        {
          "indexed": false,
          "internalType": "int256",
          "name": "humidity",
          "type": "int256"
        }
      ],
      "name": "DataPointAdded",
      "type": "event"
    },
    {
      "anonymous": false,
      "inputs": [
        {
          "indexed": true,
          "internalType": "string",
          "name": "shipmentId",
          "type": "string"
        },
        {
          "indexed": true,
          "internalType": "address",
          "name": "buyerAddress",
          "type": "address"
        },
        {
          "indexed": false,
          "internalType": "string",
          "name": "description",
          "type": "string"
        }
      ],
      "name": "ShipmentRegistered",
      "type": "event"
    },
    {
      "inputs": [
        {
          "internalType": "string",
          "name": "_shipmentId",
          "type": "string"
        },
        {
          "internalType": "uint256",
          "name": "_timestamp",
          "type": "uint256"
        },
        {
          "internalType": "int256",
          "name": "_temperature",
          "type": "int256"
        },
        {
          "internalType": "int256",
          "name": "_humidity",
          "type": "int256"
        }
      ],
      "name": "addDataPoint",
      "outputs": [],
      "stateMutability": "nonpayable",
      "type": "function"
    },
    {
      "inputs": [
        {
          "internalType": "string",
          "name": "",
          "type": "string"
        },
        {
          "internalType": "uint256",
          "name": "",
          "type": "uint256"
        }
      ],
      "name": "dataByShipmentId",
      "outputs": [
        {
          "internalType": "uint256",
          "name": "timestamp",
          "type": "uint256"
        },
        {
          "internalType": "int256",
          "name": "temperature",
          "type": "int256"
        },
        {
          "internalType": "int256",
          "name": "humidity",
          "type": "int256"
        }
      ],
      "stateMutability": "view",
      "type": "function"
    },
    {
      "inputs": [
        {
          "internalType": "string",
          "name": "_shipmentId",
          "type": "string"
        }
      ],
      "name": "getLatestDataPoint",
      "outputs": [
        {
          "components": [
            {
              "internalType": "uint256",
              "name": "timestamp",
              "type": "uint256"
            },
            {
              "internalType": "int256",
              "name": "temperature",
              "type": "int256"
            },
            {
              "internalType": "int256",
              "name": "humidity",
              "type": "int256"
            }
          ],
          "internalType": "struct Monitoring.DataPoint",
          "name": "",
          "type": "tuple"
        }
      ],
      "stateMutability": "view",
      "type": "function"
    },
    {
      "inputs": [
        {
          "internalType": "string",
          "name": "_shipmentId",
          "type": "string"
        }
      ],
      "name": "getShipmentHistory",
      "outputs": [
        {
          "components": [
            {
              "internalType": "uint256",
              "name": "timestamp",
              "type": "uint256"
            },
            {
              "internalType": "int256",
              "name": "temperature",
              "type": "int256"
            },
            {
              "internalType": "int256",
              "name": "humidity",
              "type": "int256"
            }
          ],
          "internalType": "struct Monitoring.DataPoint[]",
          "name": "",
          "type": "tuple[]"
        }
      ],
      "stateMutability": "view",
      "type": "function"
    },
    {
      "inputs": [],
      "name": "owner",
      "outputs": [
        {
          "internalType": "address",
          "name": "",
          "type": "address"
        }
      ],
      "stateMutability": "view",
      "type": "function"
    },
    {
      "inputs": [
        {
          "internalType": "string",
          "name": "_shipmentId",
          "type": "string"
        },
        {
          "internalType": "address",
          "name": "_buyerAddress",
          "type": "address"
        },
        {
          "internalType": "string",
          "name": "_description",
          "type": "string"
        }
      ],
      "name": "registerShipment",
      "outputs": [],
      "stateMutability": "nonpayable",
      "type": "function"
    },
    {
      "inputs": [
        {
          "internalType": "string",
          "name": "",
          "type": "string"
        }
      ],
      "name": "shipmentDetails",
      "outputs": [
        {
          "internalType": "string",
          "name": "shipmentId",
          "type": "string"
        },
        {
          "internalType": "address",
          "name": "buyerAddress",
          "type": "address"
        },
        {
          "internalType": "string",
          "name": "description",
          "type": "string"
        },
        {
          "internalType": "bool",
          "name": "isActive",
          "type": "bool"
        }
      ],
      "stateMutability": "view",
      "type": "function"
    },
    {
      "inputs": [
        {
          "internalType": "address",
          "name": "",
          "type": "address"
        },
        {
          "internalType": "uint256",
          "name": "",
          "type": "uint256"
        }
      ],
      "name": "shipmentsForBuyer",
      "outputs": [
        {
          "internalType": "string",
          "name": "",
          "type": "string"
        }
      ],
      "stateMutability": "view",
      "type": "function"
    }
  ],
  "bytecode": "0x6080604052348015600f57600080fd5b50336000806101000a81548173ffffffffffffffffffffffffffffffffffffffff021916908373ffffffffffffffffffffffffffffffffffffffff16021790555061184e8061005f6000396000f3fe608060405234801561001057600080fd5b50600436106100885760003560e01c80635f3b5b121161005b5780635f3b5b12146101275780637945179d1461015a5780638da5cb5b1461018a578063b644aeb7146101a857610088565b806303e39f0a1461008d57806329faba53146100bd57806337720899146100d95780633b380f8d1461010b575b600080fd5b6100a760048036038101906100a29190610c5a565b6101d8565b6040516100b49190610dc6565b60405180910390f35b6100d760048036038101906100d29190610e40565b610273565b005b6100f360048036038101906100ee9190610ec3565b610448565b60405161010293929190610f3d565b60405180910390f35b61012560048036038101906101209190610fd2565b6104a5565b005b610141600480360381019061013c9190610c5a565b6107ac565b6040516101519493929190611106565b60405180910390f35b610174600480360381019061016f9190611159565b61092f565b6040516101819190611199565b60405180910390f35b6101926109e8565b60405161019f91906111bb565b60405180910390f35b6101c260048036038101906101bd9190610c5a565b610a0c565b6040516101cf9190611218565b60405180910390f35b60606001826040516101ea919061126f565b9081526020016040518091039020805480602002602001604051908101604052809291908181526020016000905b828210156102685783829060005260206000209060030201604051806060016040529081600082015481526020016001820154815260200160028201548152505081526020019060010190610218565b505050509050919050565b60008054906101000a900473ffffffffffffffffffffffffffffffffffffffff1673ffffffffffffffffffffffffffffffffffffffff163373ffffffffffffffffffffffffffffffffffffffff1614610301576040517f08c379a00000000000000000000000000000000000000000000000000000000081526004016102f8906112f8565b60405180910390fd5b600384604051610311919061126f565b908152602001604051809103902060030160009054906101000a900460ff1661036f576040517f08c379a00000000000000000000000000000000000000000000000000000000081526004016103669061138a565b60405180910390fd5b60018460405161037f919061126f565b908152602001604051809103902060405180606001604052808581526020018481526020018381525090806001815401808255809150506001900390600052602060002090600302016000909190919091506000820151816000015560208201518160010155604082015181600201555050836040516103ff919061126f565b60405180910390207f4b3b6e59a21214fab8f5ab17e885fc6a12a213629da9ba90bf33126386cf726884848460405161043a93929190610f3d565b60405180910390a250505050565b600182805160208101820180518482526020830160208501208183528095505050505050818154811061047a57600080fd5b9060005260206000209060030201600091509150508060000154908060010154908060020154905083565b60008054906101000a900473ffffffffffffffffffffffffffffffffffffffff1673ffffffffffffffffffffffffffffffffffffffff163373ffffffffffffffffffffffffffffffffffffffff1614610533576040517f08c379a000000000000000000000000000000000000000000000000000000000815260040161052a906112f8565b60405180910390fd5b600073ffffffffffffffffffffffffffffffffffffffff1660038460405161055b919061126f565b908152602001604051809103902060010160009054906101000a900473ffffffffffffffffffffffffffffffffffffffff1673ffffffffffffffffffffffffffffffffffffffff16146105e3576040517f08c379a00000000000000000000000000000000000000000000000000000000081526004016105da906113f6565b60405180910390fd5b60405180608001604052808481526020018373ffffffffffffffffffffffffffffffffffffffff1681526020018281526020016001151581525060038460405161062d919061126f565b908152602001604051809103902060008201518160000190816106509190611622565b5060208201518160010160006101000a81548173ffffffffffffffffffffffffffffffffffffffff021916908373ffffffffffffffffffffffffffffffffffffffff16021790555060408201518160020190816106ad9190611622565b5060608201518160030160006101000a81548160ff021916908315150217905550905050600260008373ffffffffffffffffffffffffffffffffffffffff1673ffffffffffffffffffffffffffffffffffffffff168152602001908152602001600020839080600181540180825580915050600190039060005260206000200160009091909190915090816107429190611622565b508173ffffffffffffffffffffffffffffffffffffffff1683604051610768919061126f565b60405180910390207f8d57625da7d5011b66685d27cbcd23db3e501e6f01558522a0126b26f626bcec8360405161079f9190611199565b60405180910390a3505050565b6003818051602081018201805184825260208301602085012081835280955050505050506000915090508060000180546107e590611445565b80601f016020809104026020016040519081016040528092919081815260200182805461081190611445565b801561085e5780601f106108335761010080835404028352916020019161085e565b820191906000526020600020905b81548152906001019060200180831161084157829003601f168201915b5050505050908060010160009054906101000a900473ffffffffffffffffffffffffffffffffffffffff169080600201805461089990611445565b80601f01602080910402602001604051908101604052809291908181526020018280546108c590611445565b80156109125780601f106108e757610100808354040283529160200191610912565b820191906000526020600020905b8154815290600101906020018083116108f557829003601f168201915b5050505050908060030160009054906101000a900460ff16905084565b6002602052816000526040600020818154811061094b57600080fd5b9060005260206000200160009150915050805461096790611445565b80601f016020809104026020016040519081016040528092919081815260200182805461099390611445565b80156109e05780601f106109b5576101008083540402835291602001916109e0565b820191906000526020600020905b8154815290600101906020018083116109c357829003601f168201915b505050505081565b60008054906101000a900473ffffffffffffffffffffffffffffffffffffffff1681565b610a14610adf565b6000600183604051610a26919061126f565b908152602001604051809103902090506000818054905011610a7d576040517f08c379a0000000000000000000000000000000000000000000000000000000008152600401610a7490611766565b60405180910390fd5b8060018280549050610a8f91906117b5565b81548110610aa057610a9f6117e9565b5b90600052602060002090600302016040518060600160405290816000820154815260200160018201548152602001600282015481525050915050919050565b60405180606001604052806000815260200160008152602001600081525090565b6000604051905090565b600080fd5b600080fd5b600080fd5b600080fd5b6000601f19601f8301169050919050565b7f4e487b7100000000000000000000000000000000000000000000000000000000600052604160045260246000fd5b610b6782610b1e565b810181811067ffffffffffffffff82111715610b8657610b85610b2f565b5b80604052505050565b6000610b99610b00565b9050610ba58282610b5e565b919050565b600067ffffffffffffffff821115610bc557610bc4610b2f565b5b610bce82610b1e565b9050602081019050919050565b82818337600083830152505050565b6000610bfd610bf884610baa565b610b8f565b905082815260208101848484011115610c1957610c18610b19565b5b610c24848285610bdb565b509392505050565b600082601f830112610c4157610c40610b14565b5b8135610c51848260208601610bea565b91505092915050565b600060208284031215610c7057610c6f610b0a565b5b600082013567ffffffffffffffff811115610c8e57610c8d610b0f565b5b610c9a84828501610c2c565b91505092915050565b600081519050919050565b600082825260208201905092915050565b6000819050602082019050919050565b6000819050919050565b610ce281610ccf565b82525050565b6000819050919050565b610cfb81610ce8565b82525050565b606082016000820151610d176000850182610cd9565b506020820151610d2a6020850182610cf2565b506040820151610d3d6040850182610cf2565b50505050565b6000610d4f8383610d01565b60608301905092915050565b6000602082019050919050565b6000610d7382610ca3565b610d7d8185610cae565b9350610d8883610cbf565b8060005b83811015610db9578151610da08882610d43565b9750610dab83610d5b565b925050600181019050610d8c565b5085935050505092915050565b60006020820190508181036000830152610de08184610d68565b905092915050565b610df181610ccf565b8114610dfc57600080fd5b50565b600081359050610e0e81610de8565b92915050565b610e1d81610ce8565b8114610e2857600080fd5b50565b600081359050610e3a81610e14565b92915050565b60008060008060808587031215610e5a57610e59610b0a565b5b600085013567ffffffffffffffff811115610e7857610e77610b0f565b5b610e8487828801610c2c565b9450506020610e9587828801610dff565b9350506040610ea687828801610e2b565b9250506060610eb787828801610e2b565b91505092959194509250565b60008060408385031215610eda57610ed9610b0a565b5b600083013567ffffffffffffffff811115610ef857610ef7610b0f565b5b610f0485828601610c2c565b9250506020610f1585828601610dff565b9150509250929050565b610f2881610ccf565b82525050565b610f3781610ce8565b82525050565b6000606082019050610f526000830186610f1f565b610f5f6020830185610f2e565b610f6c6040830184610f2e565b949350505050565b600073ffffffffffffffffffffffffffffffffffffffff82169050919050565b6000610f9f82610f74565b9050919050565b610faf81610f94565b8114610fba57600080fd5b50565b600081359050610fcc81610fa6565b92915050565b600080600060608486031215610feb57610fea610b0a565b5b600084013567ffffffffffffffff81111561100957611008610b0f565b5b61101586828701610c2c565b935050602061102686828701610fbd565b925050604084013567ffffffffffffffff81111561104757611046610b0f565b5b61105386828701610c2c565b9150509250925092565b600081519050919050565b600082825260208201905092915050565b60005b8381101561109757808201518184015260208101905061107c565b60008484015250505050565b60006110ae8261105d565b6110b88185611068565b93506110c8818560208601611079565b6110d181610b1e565b840191505092915050565b6110e581610f94565b82525050565b60008115159050919050565b611100816110eb565b82525050565b6000608082019050818103600083015261112081876110a3565b905061112f60208301866110dc565b818103604083015261114181856110a3565b905061115060608301846110f7565b95945050505050565b600080604083850312156111705761116f610b0a565b5b600061117e85828601610fbd565b925050602061118f85828601610dff565b9150509250929050565b600060208201905081810360008301526111b381846110a3565b905092915050565b60006020820190506111d060008301846110dc565b92915050565b6060820160008201516111ec6000850182610cd9565b5060208201516111ff6020850182610cf2565b5060408201516112126040850182610cf2565b50505050565b600060608201905061122d60008301846111d6565b92915050565b600081905092915050565b60006112498261105d565b6112538185611233565b9350611263818560208601611079565b80840191505092915050565b600061127b828461123e565b915081905092915050565b7f48616e79612061646d696e202870656d696c696b20636f6e747261637429207960008201527f616e672062697361206d656e6a616c616e6b616e2066756e67736920696e692e602082015250565b60006112e2604083611068565b91506112ed82611286565b604082019050919050565b60006020820190508181036000830152611311816112d5565b9050919050565b7f50656e676972696d616e20696e6920737564616820746964616b20616b74696660008201527f2e00000000000000000000000000000000000000000000000000000000000000602082015250565b6000611374602183611068565b915061137f82611318565b604082019050919050565b600060208201905081810360008301526113a381611367565b9050919050565b7f49442050656e676972696d616e207375646168206164612e0000000000000000600082015250565b60006113e0601883611068565b91506113eb826113aa565b602082019050919050565b6000602082019050818103600083015261140f816113d3565b9050919050565b7f4e487b7100000000000000000000000000000000000000000000000000000000600052602260045260246000fd5b6000600282049050600182168061145d57607f821691505b6020821081036114705761146f611416565b5b50919050565b60008190508160005260206000209050919050565b60006020601f8301049050919050565b600082821b905092915050565b6000600883026114d87fffffffffffffffffffffffffffffffffffffffffffffffffffffffffffffffff8261149b565b6114e2868361149b565b95508019841693508086168417925050509392505050565b6000819050919050565b600061151f61151a61151584610ccf565b6114fa565b610ccf565b9050919050565b6000819050919050565b61153983611504565b61154d61154582611526565b8484546114a8565b825550505050565b600090565b611562611555565b61156d818484611530565b505050565b5b818110156115915761158660008261155a565b600181019050611573565b5050565b601f8211156115d6576115a781611476565b6115b08461148b565b810160208510156115bf578190505b6115d36115cb8561148b565b830182611572565b50505b505050565b600082821c905092915050565b60006115f9600019846008026115db565b1980831691505092915050565b600061161283836115e8565b9150826002028217905092915050565b61162b8261105d565b67ffffffffffffffff81111561164457611643610b2f565b5b61164e8254611445565b611659828285611595565b600060209050601f83116001811461168c576000841561167a578287015190505b6116848582611606565b8655506116ec565b601f19841661169a86611476565b60005b828110156116c25784890151825560018201915060208501945060208101905061169d565b868310156116df57848901516116db601f8916826115e8565b8355505b6001600288020188555050505b505050505050565b7f42656c756d20616461206461746120756e74756b2070656e676972696d616e2060008201527f696e692e00000000000000000000000000000000000000000000000000000000602082015250565b6000611750602483611068565b915061175b826116f4565b604082019050919050565b6000602082019050818103600083015261177f81611743565b9050919050565b7f4e487b7100000000000000000000000000000000000000000000000000000000600052601160045260246000fd5b60006117c082610ccf565b91506117cb83610ccf565b92508282039050818111156117e3576117e2611786565b5b92915050565b7f4e487b7100000000000000000000000000000000000000000000000000000000600052603260045260246000fdfea2646970667358221220c261eae18c51989fd3752be39ff2cef10f90acaafc61f9eae9d39f33edd081b564736f6c634300081c0033",
  "linkReferences": {},
  "deployedLinkReferences": {}
}